{"project/contracts/ClosureAnchor.sol":{"ClosureAnchor":{"abi":[{"inputs":[{"internalType":"address","name":"initialOwner","type":"address"}],"stateMutability":"nonpayable","type":"constructor"},{"inputs":[{"internalType":"bytes32","name":"rootHash","type":"bytes32"}],"name":"AlreadyAnchored","type":"error"},{"inputs":[],"name":"ContractPaused","type":"error"},{"inputs":[],"name":"EmptyAnchorType","type":"error"},{"inputs":[],"name":"EmptyArtifactType","type":"error"},{"inputs":[],"name":"EmptyRootHash","type":"error"},{"inputs":[],"name":"EmptyVersion","type":"error"},{"inputs":[],"name":"InvalidChainHint","type":"error"},{"inputs":[{"internalType":"uint256","name":"expected","type":"uint256"},{"internalType":"uint256","name":"provided","type":"uint256"}],"name":"InvalidNonce","type":"error"},{"inputs":[],"name":"Unauthorized","type":"error"},{"anonymous":false,"inputs":[{"indexed":true,"internalType":"bytes32","name":"rootHash","type":"bytes32"},{"indexed":true,"internalType":"address","name":"anchorer","type":"address"},{"indexed":false,"internalType":"string","name":"anchorType","type":"string"},{"indexed":false,"internalType":"string","name":"artifactType","type":"string"},{"indexed":false,"internalType":"string","name":"version","type":"string"},{"indexed":false,"internalType":"string","name":"manifestURI","type":"string"},{"indexed":false,"internalType":"string","name":"receiptURI","type":"string"},{"indexed":false,"internalType":"uint256","name":"nonce","type":"uint256"},{"indexed":false,"internalType":"uint256","name":"timestamp","type":"uint256"},{"indexed":false,"internalType":"uint256","name":"chainId","type":"uint256"},{"indexed":false,"internalType":"bytes32","name":"blockHash","type":"bytes32"}],"name":"ClosureAnchored","type":"event"},{"anonymous":false,"inputs":[{"indexed":true,"internalType":"address","name":"guardian","type":"address"},{"indexed":false,"internalType":"bool","name":"allowed","type":"bool"}],"name":"GuardianUpdated","type":"event"},{"anonymous":false,"inputs":[{"indexed":true,"internalType":"address","name":"previousOwner","type":"address"},{"indexed":true,"internalType":"address","name":"newOwner","type":"address"}],"name":"OwnerTransferred","type":"event"},{"anonymous":false,"inputs":[{"indexed":false,"internalType":"bool","name":"paused","type":"bool"}],"name":"PauseStateChanged","type":"event"},{"inputs":[{"internalType":"bytes32","name":"rootHash","type":"bytes32"},{"internalType":"string","name":"anchorType","type":"string"},{"internalType":"string","name":"artifactType","type":"string"},{"internalType":"string","name":"version","type":"string"},{"internalType":"string","name":"manifestURI","type":"string"},{"internalType":"string","name":"receiptURI","type":"string"},{"internalType":"uint256","name":"expectedChainId","type":"uint256"},{"internalType":"uint256","name":"nonce","type":"uint256"}],"name":"anchorClosure","outputs":[],"stateMutability":"nonpayable","type":"function"},{"inputs":[{"internalType":"bytes32","name":"rootHash","type":"bytes32"}],"name":"getAnchor","outputs":[{"components":[{"internalType":"bytes32","name":"rootHash","type":"bytes32"},{"internalType":"address","name":"anchorer","type":"address"},{"internalType":"string","name":"anchorType","type":"string"},{"internalType":"string","name":"artifactType","type":"string"},{"internalType":"string","name":"version","type":"string"},{"internalType":"string","name":"manifestURI","type":"string"},{"internalType":"string","name":"receiptURI","type":"string"},{"internalType":"uint256","name":"nonce","type":"uint256"},{"internalType":"uint256","name":"timestamp","type":"uint256"},{"internalType":"uint256","name":"chainId","type":"uint256"},{"internalType":"bytes32","name":"blockHash","type":"bytes32"},{"internalType":"bool","name":"exists","type":"bool"}],"internalType":"struct ClosureAnchor.AnchorRecord","name":"","type":"tuple"}],"stateMutability":"view","type":"function"},{"inputs":[{"internalType":"address","name":"","type":"address"}],"name":"guardians","outputs":[{"internalType":"bool","name":"","type":"bool"}],"stateMutability":"view","type":"function"},{"inputs":[{"internalType":"bytes32","name":"rootHash","type":"bytes32"}],"name":"isAnchored","outputs":[{"internalType":"bool","name":"","type":"bool"}],"stateMutability":"view","type":"function"},{"inputs":[],"name":"nextNonce","outputs":[{"internalType":"uint256","name":"","type":"uint256"}],"stateMutability":"view","type":"function"},{"inputs":[],"name":"owner","outputs":[{"internalType":"address","name":"","type":"address"}],"stateMutability":"view","type":"function"},{"inputs":[],"name":"paused","outputs":[{"internalType":"bool","name":"","type":"bool"}],"stateMutability":"view","type":"function"},{"inputs":[{"internalType":"uint256","name":"index","type":"uint256"}],"name":"rootHashAt","outputs":[{"internalType":"bytes32","name":"","type":"bytes32"}],"stateMutability":"view","type":"function"},{"inputs":[{"internalType":"address","name":"guardian","type":"address"},{"internalType":"bool","name":"allowed","type":"bool"}],"name":"setGuardian","outputs":[],"stateMutability":"nonpayable","type":"function"},{"inputs":[{"internalType":"bool","name":"isPaused","type":"bool"}],"name":"setPaused","outputs":[],"stateMutability":"nonpayable","type":"function"},{"inputs":[],"name":"totalAnchors","outputs":[{"internalType":"uint256","name":"","type":"uint256"}],"stateMutability":"view","type":"function"},{"inputs":[{"internalType":"address","name":"newOwner","type":"address"}],"name":"transferOwnership","outputs":[],"stateMutability":"nonpayable","type":"function"}],"evm":{"bytecode":{"linkReferences":{},"object":"6080346100a757601f61129c38819003918201601f19168301916001600160401b038311848410176100ab578084926020946040528339810103126100a757516001600160a01b03908181168082036100a757600180556100a25750335b168060018060a01b03195f5416175f55604051905f7f8934ce4adea8d9ce0d714d2c22b86790e41b7731c84b926fbbdc1d40ff6533c98180a36111dc90816100c08239f35b61005d565b5f80fd5b634e487b7160e01b5f52604160045260245ffdfe6080806040526004361015610012575f80fd5b5f3560e01c9081630633b14a14610f275750806316c38b3c14610eb45780632b8a1c5a14610e2a578063321ef0d314610dfe5780634f0b580114610dcc5780635c975abb14610da85780637feb51d914610ba05780638da5cb5b14610b795780639ffb463514610b5c578063d48b577b14610179578063d69c3d301461015c5763f2fde38b146100a0575f80fd5b34610158576020366003190112610158576100b9610f60565b5f54906001600160a01b038083169133839003610147571691821561010e576001600160a01b03191682175f9081557f8934ce4adea8d9ce0d714d2c22b86790e41b7731c84b926fbbdc1d40ff6533c99080a3005b60405162461bcd60e51b81526020600482015260116024820152706e6577206f776e6572206973207a65726f60781b6044820152606490fd5b6040516282b42960e81b8152600490fd5b5f80fd5b34610158575f366003190112610158576020600154604051908152f35b3461015857610100366003190112610158576024356001600160401b038111610158576101aa903690600401610fb4565b906044356001600160401b038111610158576101ca903690600401610fb4565b906064356001600160401b038111610158576101ea903690600401610fb4565b906084356001600160401b0381116101585761020a903690600401610fb4565b92909360a4356001600160401b0381116101585761022c903690600401610fb4565b5f549198909791336001600160a01b038216141580610b45575b6101475760a01c60ff16610b335760043515610b21576004355f52600360205260ff600b60405f20015416610b085760c435151580610afc575b610aea578915610ad8578115610ac6578315610ab4576001548060e43503610a945750435f19810111610683576040516102b98161102a565b60043581523360208201526102cf368c84611141565b60408201526102df368486611141565b60608201526102ef368688611141565b60808201526102ff36888a611141565b60a082015261030f368a8c611141565b60c082015260e43560e082015242610100820152466101208201525f1943014061014082015260016101608201526004355f52600360205260405f2090805182556001820160018060a01b036020830151166bffffffffffffffffffffffff60a01b82541617905560408101518051906001600160401b03821161069757819061039c6002860154611067565b601f8111610a44575b50602090601f83116001146109d6575f926109cb575b50508160011b915f199060031b1c19161760028301555b60608101518051906001600160401b0382116106975781906103f76003860154611067565b601f811161097b575b50602090601f831160011461090d575f92610902575b50508160011b915f199060031b1c19161760038301555b60808101518051906001600160401b0382116106975781906104526004860154611067565b601f81116108b2575b50602090601f8311600114610844575f92610839575b50508160011b915f199060031b1c19161760048301555b60a08101518051906001600160401b0382116106975781906104ad6005860154611067565b601f81116107e9575b50602090601f831160011461077b575f92610770575b50508160011b915f199060031b1c19161760058301555b60c08101518051906001600160401b038211610697576105066006850154611067565b601f811161072c575b50602090601f83116001146106b6579282600b936101609361058c97965f926106ab575b50508160011b915f199060031b1c19161760068501555b60e0810151600785015561010081015160088501556101208101516009850155610140810151600a8501550151151591019060ff801983541691151516179055565b60045468010000000000000000811015610697578060016105b09201600455610fe1565b81549060031b90600435821b915f19901b19161790556001546001810180911161068357600155604051996101208b526101208b01906105ef92611186565b9089820360208b015261060192611186565b90878203604089015261061392611186565b90858203606087015261062592611186565b90838203608085015261063792611186565b60e43560a08301524260c08301524660e08301525f1943014061010083015233918060043592037f02aecfbee918de57bf17545ab5f17cb6f740efb621edd9ea61d0d728424e98ca91a3005b634e487b7160e01b5f52601160045260245ffd5b634e487b7160e01b5f52604160045260245ffd5b015190505f80610533565b90600685015f5260205f20915f5b601f19851681106107145750836101609361058c979693600193600b97601f198116106106fc575b505050811b01600685015561054a565b01515f1960f88460031b161c191690555f80806106ec565b919260206001819286850151815501940192016106c4565b600685015f5260205f20601f840160051c810160208510610769575b601f830160051c8201811061075e57505061050f565b5f8155600101610748565b5080610748565b015190508e806104cc565b9250600585015f5260205f20905f935b601f19841685106107ce576001945083601f198116106107b6575b505050811b0160058301556104e3565b01515f1960f88460031b161c191690558e80806107a6565b8181015183556020948501946001909301929091019061078b565b909150600585015f5260205f20601f840160051c810160208510610832575b90849392915b601f830160051c820181106108245750506104b6565b5f815585945060010161080e565b5080610808565b015190508e80610471565b9250600485015f5260205f20905f935b601f1984168510610897576001945083601f1981161061087f575b505050811b016004830155610488565b01515f1960f88460031b161c191690558e808061086f565b81810151835560209485019460019093019290910190610854565b909150600485015f5260205f20601f840160051c8101602085106108fb575b90849392915b601f830160051c820181106108ed57505061045b565b5f81558594506001016108d7565b50806108d1565b015190508e80610416565b9250600385015f5260205f20905f935b601f1984168510610960576001945083601f19811610610948575b505050811b01600383015561042d565b01515f1960f88460031b161c191690558e8080610938565b8181015183556020948501946001909301929091019061091d565b909150600385015f5260205f20601f840160051c8101602085106109c4575b90849392915b601f830160051c820181106109b6575050610400565b5f81558594506001016109a0565b508061099a565b015190508e806103bb565b9250600285015f5260205f20905f935b601f1984168510610a29576001945083601f19811610610a11575b505050811b0160028301556103d2565b01515f1960f88460031b161c191690558e8080610a01565b818101518355602094850194600190930192909101906109e6565b909150600285015f5260205f20601f840160051c810160208510610a8d575b90849392915b601f830160051c82018110610a7f5750506103a5565b5f8155859450600101610a69565b5080610a63565b604490604051906306427aeb60e01b8252600482015260e4356024820152fd5b604051632e56a66b60e11b8152600490fd5b6040516301c1c19760e61b8152600490fd5b60405163a717887160e01b8152600490fd5b60405163079fc92560e11b8152600490fd5b504660c4351415610280565b60246040516330d2381360e01b81526004356004820152fd5b604051632fe885d760e21b8152600490fd5b60405163ab35696f60e01b8152600490fd5b50335f52600260205260ff60405f20541615610246565b34610158575f366003190112610158576020600454604051908152f35b34610158575f366003190112610158575f546040516001600160a01b039091168152602090f35b34610158576020366003190112610158575f610160604051610bc18161102a565b8281528260208201526060604082015260608082015260606080820152606060a0820152606060c08201528260e082015282610100820152826101208201528261014082015201526004355f52600360205260405f2060ff600b60405192610c288461102a565b8054845260018101546001600160a01b03166020850152610c4b6002820161109f565b6040850152610c5c6003820161109f565b6060850152610c6d6004820161109f565b6080850152610c7e6005820161109f565b60a0850152610c8f6006820161109f565b60c0850152600781015460e085015260088101546101008501526009810154610120850152600a81015461014085015201541615156101608201526040518091602082528051602083015260018060a01b036020820151166040830152610160610d6c610d0d604084015161018060608701526101a0860190610f76565b610d57610d43610d2f606087015193601f1994858a83030160808b0152610f76565b6080870151848983030160a08a0152610f76565b60a0860151838883030160c0890152610f76565b9060c0850151908683030160e0870152610f76565b9160e081015161010085015261010081015161012085015261012081015161014085015261014081015182850152015115156101808301520390f35b34610158575f36600319011261015857602060ff5f5460a01c166040519015158152f35b34610158576020366003190112610158576004355f526003602052602060ff600b60405f200154166040519015158152f35b34610158576020366003190112610158576020610e1c600435610fe1565b90546040519160031b1c8152f35b3461015857604036600319011261015857610e43610f60565b60243590811515808303610158575f546001600160a01b0391908216330361014757610eab6020927f6fff6b51fc7f6641dd270e7981bc5cfcdf76fef18faa559aef714e9934c38743941694855f526002845260405f209060ff801983541691151516179055565b604051908152a2005b3461015857602036600319011261015857600435801515809103610158575f546001600160a01b03811633036101475760ff60a01b191660a082901b60ff60a01b16175f556040519081527f4543baa938cb97f5073ec206ad35638cdb1f4db8f677d31579b2f6fe7d18c14a90602090a1005b34610158576020366003190112610158576020906001600160a01b03610f4b610f60565b165f526002825260ff60405f20541615158152f35b600435906001600160a01b038216820361015857565b91908251928382525f5b848110610fa0575050825f602080949584010152601f8019910116010190565b602081830181015184830182015201610f80565b9181601f84011215610158578235916001600160401b038311610158576020838186019501011161015857565b6004548110156110165760045f527f8a35acfbc15ff81a39ae7d344fd709f28e8600b4aa8c65c6b64bfe7fe36bd19b01905f90565b634e487b7160e01b5f52603260045260245ffd5b61018081019081106001600160401b0382111761069757604052565b90601f801991011681019081106001600160401b0382111761069757604052565b90600182811c92168015611095575b602083101461108157565b634e487b7160e01b5f52602260045260245ffd5b91607f1691611076565b9060405191825f82546110b181611067565b908184526020946001916001811690815f1461111f57506001146110e1575b5050506110df92500383611046565b565b5f90815285812095935091905b8183106111075750506110df93508201015f80806110d0565b855488840185015294850194879450918301916110ee565b925050506110df94925060ff191682840152151560051b8201015f80806110d0565b9291926001600160401b038211610697576040519161116a601f8201601f191660200184611046565b829481845281830111610158578281602093845f960137010152565b908060209392818452848401375f828201840152601f01601f191601019056fea2646970667358221220cdac70d838167ae79236c22cc69265614155ed95f95c80a22edb024eade178eb64736f6c63430008180033","opcodes":"PUSH1 0x80 CALLVALUE PUSH2 0xA7 JUMPI PUSH1 0x1F PUSH2 0x129C CODESIZE DUP2 SWAP1 SUB SWAP2 DUP3 ADD PUSH1 0x1F NOT AND DUP4 ADD SWAP2 PUSH1 0x1 PUSH1 0x1 PUSH1 0x40 SHL SUB DUP4 GT DUP5 DUP5 LT OR PUSH2 0xAB JUMPI DUP1 DUP5 SWAP3 PUSH1 0x20 SWAP5 PUSH1 0x40 MSTORE DUP4 CODECOPY DUP2 ADD SUB SLT PUSH2 0xA7 JUMPI MLOAD PUSH1 0x1 PUSH1 0x1 PUSH1 0xA0 SHL SUB SWAP1 DUP2 DUP2 AND DUP1 DUP3 SUB PUSH2 0xA7 JUMPI PUSH1 0x1 DUP1 SSTORE PUSH2 0xA2 JUMPI POP CALLER JUMPDEST AND DUP1 PUSH1 0x1 DUP1 PUSH1 0xA0 SHL SUB NOT PUSH0 SLOAD AND OR PUSH0 SSTORE PUSH1 0x40 MLOAD SWAP1 PUSH0 PUSH32 0x8934CE4ADEA8D9CE0D714D2C22B86790E41B7731C84B926FBBDC1D40FF6533C9 DUP2 DUP1 LOG3 PUSH2 0x11DC SWAP1 DUP2 PUSH2 0xC0 DUP3 CODECOPY RETURN JUMPDEST PUSH2 0x5D JUMP JUMPDEST PUSH0 DUP1 REVERT JUMPDEST PUSH4 0x4E487B71 PUSH1 0xE0 SHL PUSH0 MSTORE PUSH1 0x41 PUSH1 0x4 MSTORE PUSH1 0x24 PUSH0 REVERT INVALID PUSH1 0x80 DUP1 PUSH1 0x40 MSTORE PUSH1 0x4 CALLDATASIZE LT ISZERO PUSH2 0x12 JUMPI PUSH0 DUP1 REVERT JUMPDEST PUSH0 CALLDATALOAD PUSH1 0xE0 SHR SWAP1 DUP2 PUSH4 0x633B14A EQ PUSH2 0xF27 JUMPI POP DUP1 PUSH4 0x16C38B3C EQ PUSH2 0xEB4 JUMPI DUP1 PUSH4 0x2B8A1C5A EQ PUSH2 0xE2A JUMPI DUP1 PUSH4 0x321EF0D3 EQ PUSH2 0xDFE JUMPI DUP1 PUSH4 0x4F0B5801 EQ PUSH2 0xDCC JUMPI DUP1 PUSH4 0x5C975ABB EQ PUSH2 0xDA8 JUMPI DUP1 PUSH4 0x7FEB51D9 EQ PUSH2 0xBA0 JUMPI DUP1 PUSH4 0x8DA5CB5B EQ PUSH2 0xB79 JUMPI DUP1 PUSH4 0x9FFB4635 EQ PUSH2 0xB5C JUMPI DUP1 PUSH4 0xD48B577B EQ PUSH2 0x179 JUMPI DUP1 PUSH4 0xD69C3D30 EQ PUSH2 0x15C JUMPI PUSH4 0xF2FDE38B EQ PUSH2 0xA0 JUMPI PUSH0 DUP1 REVERT JUMPDEST CALLVALUE PUSH2 0x158 JUMPI PUSH1 0x20 CALLDATASIZE PUSH1 0x3 NOT ADD SLT PUSH2 0x158 JUMPI PUSH2 0xB9 PUSH2 0xF60 JUMP JUMPDEST PUSH0 SLOAD SWAP1 PUSH1 0x1 PUSH1 0x1 PUSH1 0xA0 SHL SUB DUP1 DUP4 AND SWAP2 CALLER DUP4 SWAP1 SUB PUSH2 0x147 JUMPI AND SWAP2 DUP3 ISZERO PUSH2 0x10E JUMPI PUSH1 0x1 PUSH1 0x1 PUSH1 0xA0 SHL SUB NOT AND DUP3 OR PUSH0 SWAP1 DUP2 SSTORE PUSH32 0x8934CE4ADEA8D9CE0D714D2C22B86790E41B7731C84B926FBBDC1D40FF6533C9 SWAP1 DUP1 LOG3 STOP JUMPDEST PUSH1 0x40 MLOAD PUSH3 0x461BCD PUSH1 0xE5 SHL DUP2 MSTORE PUSH1 0x20 PUSH1 0x4 DUP3 ADD MSTORE PUSH1 0x11 PUSH1 0x24 DUP3 ADD MSTORE PUSH17 0x6E6577206F776E6572206973207A65726F PUSH1 0x78 SHL PUSH1 0x44 DUP3 ADD MSTORE PUSH1 0x64 SWAP1 REVERT JUMPDEST PUSH1 0x40 MLOAD PUSH3 0x82B429 PUSH1 0xE8 SHL DUP2 MSTORE PUSH1 0x4 SWAP1 REVERT JUMPDEST PUSH0 DUP1 REVERT JUMPDEST CALLVALUE PUSH2 0x158 JUMPI PUSH0 CALLDATASIZE PUSH1 0x3 NOT ADD SLT PUSH2 0x158 JUMPI PUSH1 0x20 PUSH1 0x1 SLOAD PUSH1 0x40 MLOAD SWAP1 DUP2 MSTORE RETURN JUMPDEST CALLVALUE PUSH2 0x158 JUMPI PUSH2 0x100 CALLDATASIZE PUSH1 0x3 NOT ADD SLT PUSH2 0x158 JUMPI PUSH1 0x24 CALLDATALOAD PUSH1 0x1 PUSH1 0x1 PUSH1 0x40 SHL SUB DUP2 GT PUSH2 0x158 JUMPI PUSH2 0x1AA SWAP1 CALLDATASIZE SWAP1 PUSH1 0x4 ADD PUSH2 0xFB4 JUMP JUMPDEST SWAP1 PUSH1 0x44 CALLDATALOAD PUSH1 0x1 PUSH1 0x1 PUSH1 0x40 SHL SUB DUP2 GT PUSH2 0x158 JUMPI PUSH2 0x1CA SWAP1 CALLDATASIZE SWAP1 PUSH1 0x4 ADD PUSH2 0xFB4 JUMP JUMPDEST SWAP1 PUSH1 0x64 CALLDATALOAD PUSH1 0x1 PUSH1 0x1 PUSH1 0x40 SHL SUB DUP2 GT PUSH2 0x158 JUMPI PUSH2 0x1EA SWAP1 CALLDATASIZE SWAP1 PUSH1 0x4 ADD PUSH2 0xFB4 JUMP JUMPDEST SWAP1 PUSH1 0x84 CALLDATALOAD PUSH1 0x1 PUSH1 0x1 PUSH1 0x40 SHL SUB DUP2 GT PUSH2 0x158 JUMPI PUSH2 0x20A SWAP1 CALLDATASIZE SWAP1 PUSH1 0x4 ADD PUSH2 0xFB4 JUMP JUMPDEST SWAP3 SWAP1 SWAP4 PUSH1 0xA4 CALLDATALOAD PUSH1 0x1 PUSH1 0x1 PUSH1 0x40 SHL SUB DUP2 GT PUSH2 0x158 JUMPI PUSH2 0x22C SWAP1 CALLDATASIZE SWAP1 PUSH1 0x4 ADD PUSH2 0xFB4 JUMP JUMPDEST PUSH0 SLOAD SWAP2 SWAP9 SWAP1 SWAP8 SWAP2 CALLER PUSH1 0x1 PUSH1 0x1 PUSH1 0xA0 SHL SUB DUP3 AND EQ ISZERO DUP1 PUSH2 0xB45 JUMPI JUMPDEST PUSH2 0x147 JUMPI PUSH1 0xA0 SHR PUSH1 0xFF AND PUSH2 0xB33 JUMPI PUSH1 0x4 CALLDATALOAD ISZERO PUSH2 0xB21 JUMPI PUSH1 0x4 CALLDATALOAD PUSH0 MSTORE PUSH1 0x3 PUSH1 0x20 MSTORE PUSH1 0xFF PUSH1 0xB PUSH1 0x40 PUSH0 KECCAK256 ADD SLOAD AND PUSH2 0xB08 JUMPI PUSH1 0xC4 CALLDATALOAD ISZERO ISZERO DUP1 PUSH2 0xAFC JUMPI JUMPDEST PUSH2 0xAEA JUMPI DUP10 ISZERO PUSH2 0xAD8 JUMPI DUP2 ISZERO PUSH2 0xAC6 JUMPI DUP4 ISZERO PUSH2 0xAB4 JUMPI PUSH1 0x1 SLOAD DUP1 PUSH1 0xE4 CALLDATALOAD SUB PUSH2 0xA94 JUMPI POP NUMBER PUSH0 NOT DUP2 ADD GT PUSH2 0x683 JUMPI PUSH1 0x40 MLOAD PUSH2 0x2B9 DUP2 PUSH2 0x102A JUMP JUMPDEST PUSH1 0x4 CALLDATALOAD DUP2 MSTORE CALLER PUSH1 0x20 DUP3 ADD MSTORE PUSH2 0x2CF CALLDATASIZE DUP13 DUP5 PUSH2 0x1141 JUMP JUMPDEST PUSH1 0x40 DUP3 ADD MSTORE PUSH2 0x2DF CALLDATASIZE DUP5 DUP7 PUSH2 0x1141 JUMP JUMPDEST PUSH1 0x60 DUP3 ADD MSTORE PUSH2 0x2EF CALLDATASIZE DUP7 DUP9 PUSH2 0x1141 JUMP JUMPDEST PUSH1 0x80 DUP3 ADD MSTORE PUSH2 0x2FF CALLDATASIZE DUP9 DUP11 PUSH2 0x1141 JUMP JUMPDEST PUSH1 0xA0 DUP3 ADD MSTORE PUSH2 0x30F CALLDATASIZE DUP11 DUP13 PUSH2 0x1141 JUMP JUMPDEST PUSH1 0xC0 DUP3 ADD MSTORE PUSH1 0xE4 CALLDATALOAD PUSH1 0xE0 DUP3 ADD MSTORE TIMESTAMP PUSH2 0x100 DUP3 ADD MSTORE CHAINID PUSH2 0x120 DUP3 ADD MSTORE PUSH0 NOT NUMBER ADD BLOCKHASH PUSH2 0x140 DUP3 ADD MSTORE PUSH1 0x1 PUSH2 0x160 DUP3 ADD MSTORE PUSH1 0x4 CALLDATALOAD PUSH0 MSTORE PUSH1 0x3 PUSH1 0x20 MSTORE PUSH1 0x40 PUSH0 KECCAK256 SWAP1 DUP1 MLOAD DUP3 SSTORE PUSH1 0x1 DUP3 ADD PUSH1 0x1 DUP1 PUSH1 0xA0 SHL SUB PUSH1 0x20 DUP4 ADD MLOAD AND PUSH12 0xFFFFFFFFFFFFFFFFFFFFFFFF PUSH1 0xA0 SHL DUP3 SLOAD AND OR SWAP1 SSTORE PUSH1 0x40 DUP2 ADD MLOAD DUP1 MLOAD SWAP1 PUSH1 0x1 PUSH1 0x1 PUSH1 0x40 SHL SUB DUP3 GT PUSH2 0x697 JUMPI DUP2 SWAP1 PUSH2 0x39C PUSH1 0x2 DUP7 ADD SLOAD PUSH2 0x1067 JUMP JUMPDEST PUSH1 0x1F DUP2 GT PUSH2 0xA44 JUMPI JUMPDEST POP PUSH1 0x20 SWAP1 PUSH1 0x1F DUP4 GT PUSH1 0x1 EQ PUSH2 0x9D6 JUMPI PUSH0 SWAP3 PUSH2 0x9CB JUMPI JUMPDEST POP POP DUP2 PUSH1 0x1 SHL SWAP2 PUSH0 NOT SWAP1 PUSH1 0x3 SHL SHR NOT AND OR PUSH1 0x2 DUP4 ADD SSTORE JUMPDEST PUSH1 0x60 DUP2 ADD MLOAD DUP1 MLOAD SWAP1 PUSH1 0x1 PUSH1 0x1 PUSH1 0x40 SHL SUB DUP3 GT PUSH2 0x697 JUMPI DUP2 SWAP1 PUSH2 0x3F7 PUSH1 0x3 DUP7 ADD SLOAD PUSH2 0x1067 JUMP JUMPDEST PUSH1 0x1F DUP2 GT PUSH2 0x97B JUMPI JUMPDEST POP PUSH1 0x20 SWAP1 PUSH1 0x1F DUP4 GT PUSH1 0x1 EQ PUSH2 0x90D JUMPI PUSH0 SWAP3 PUSH2 0x902 JUMPI JUMPDEST POP POP DUP2 PUSH1 0x1 SHL SWAP2 PUSH0 NOT SWAP1 PUSH1 0x3 SHL SHR NOT AND OR PUSH1 0x3 DUP4 ADD SSTORE JUMPDEST PUSH1 0x80 DUP2 ADD MLOAD DUP1 MLOAD SWAP1 PUSH1 0x1 PUSH1 0x1 PUSH1 0x40 SHL SUB DUP3 GT PUSH2 0x697 JUMPI DUP2 SWAP1 PUSH2 0x452 PUSH1 0x4 DUP7 ADD SLOAD PUSH2 0x1067 JUMP JUMPDEST PUSH1 0x1F DUP2 GT PUSH2 0x8B2 JUMPI JUMPDEST POP PUSH1 0x20 SWAP1 PUSH1 0x1F DUP4 GT PUSH1 0x1 EQ PUSH2 0x844 JUMPI PUSH0 SWAP3 PUSH2 0x839 JUMPI JUMPDEST POP POP DUP2 PUSH1 0x1 SHL SWAP2 PUSH0 NOT SWAP1 PUSH1 0x3 SHL SHR NOT AND OR PUSH1 0x4 DUP4 ADD SSTORE JUMPDEST PUSH1 0xA0 DUP2 ADD MLOAD DUP1 MLOAD SWAP1 PUSH1 0x1 PUSH1 0x1 PUSH1 0x40 SHL SUB DUP3 GT PUSH2 0x697 JUMPI DUP2 SWAP1 PUSH2 0x4AD PUSH1 0x5 DUP7 ADD SLOAD PUSH2 0x1067 JUMP JUMPDEST PUSH1 0x1F DUP2 GT PUSH2 0x7E9 JUMPI JUMPDEST POP PUSH1 0x20 SWAP1 PUSH1 0x1F DUP4 GT PUSH1 0x1 EQ PUSH2 0x77B JUMPI PUSH0 SWAP3 PUSH2 0x770 JUMPI JUMPDEST POP POP DUP2 PUSH1 0x1 SHL SWAP2 PUSH0 NOT SWAP1 PUSH1 0x3 SHL SHR NOT AND OR PUSH1 0x5 DUP4 ADD SSTORE JUMPDEST PUSH1 0xC0 DUP2 ADD MLOAD DUP1 MLOAD SWAP1 PUSH1 0x1 PUSH1 0x1 PUSH1 0x40 SHL SUB DUP3 GT PUSH2 0x697 JUMPI PUSH2 0x506 PUSH1 0x6 DUP6 ADD SLOAD PUSH2 0x1067 JUMP JUMPDEST PUSH1 0x1F DUP2 GT PUSH2 0x72C JUMPI JUMPDEST POP PUSH1 0x20 SWAP1 PUSH1 0x1F DUP4 GT PUSH1 0x1 EQ PUSH2 0x6B6 JUMPI SWAP3 DUP3 PUSH1 0xB SWAP4 PUSH2 0x160 SWAP4 PUSH2 0x58C SWAP8 SWAP7 PUSH0 SWAP3 PUSH2 0x6AB JUMPI JUMPDEST POP POP DUP2 PUSH1 0x1 SHL SWAP2 PUSH0 NOT SWAP1 PUSH1 0x3 SHL SHR NOT AND OR PUSH1 0x6 DUP6 ADD SSTORE JUMPDEST PUSH1 0xE0 DUP2 ADD MLOAD PUSH1 0x7 DUP6 ADD SSTORE PUSH2 0x100 DUP2 ADD MLOAD PUSH1 0x8 DUP6 ADD SSTORE PUSH2 0x120 DUP2 ADD MLOAD PUSH1 0x9 DUP6 ADD SSTORE PUSH2 0x140 DUP2 ADD MLOAD PUSH1 0xA DUP6 ADD SSTORE ADD MLOAD ISZERO ISZERO SWAP2 ADD SWAP1 PUSH1 0xFF DUP1 NOT DUP4 SLOAD AND SWAP2 ISZERO ISZERO AND OR SWAP1 SSTORE JUMP JUMPDEST PUSH1 0x4 SLOAD PUSH9 0x10000000000000000 DUP2 LT ISZERO PUSH2 0x697 JUMPI DUP1 PUSH1 0x1 PUSH2 0x5B0 SWAP3 ADD PUSH1 0x4 SSTORE PUSH2 0xFE1 JUMP JUMPDEST DUP2 SLOAD SWAP1 PUSH1 0x3 SHL SWAP1 PUSH1 0x4 CALLDATALOAD DUP3 SHL SWAP2 PUSH0 NOT SWAP1 SHL NOT AND OR SWAP1 SSTORE PUSH1 0x1 SLOAD PUSH1 0x1 DUP2 ADD DUP1 SWAP2 GT PUSH2 0x683 JUMPI PUSH1 0x1 SSTORE PUSH1 0x40 MLOAD SWAP10 PUSH2 0x120 DUP12 MSTORE PUSH2 0x120 DUP12 ADD SWAP1 PUSH2 0x5EF SWAP3 PUSH2 0x1186 JUMP JUMPDEST SWAP1 DUP10 DUP3 SUB PUSH1 0x20 DUP12 ADD MSTORE PUSH2 0x601 SWAP3 PUSH2 0x1186 JUMP JUMPDEST SWAP1 DUP8 DUP3 SUB PUSH1 0x40 DUP10 ADD MSTORE PUSH2 0x613 SWAP3 PUSH2 0x1186 JUMP JUMPDEST SWAP1 DUP6 DUP3 SUB PUSH1 0x60 DUP8 ADD MSTORE PUSH2 0x625 SWAP3 PUSH2 0x1186 JUMP JUMPDEST SWAP1 DUP4 DUP3 SUB PUSH1 0x80 DUP6 ADD MSTORE PUSH2 0x637 SWAP3 PUSH2 0x1186 JUMP JUMPDEST PUSH1 0xE4 CALLDATALOAD PUSH1 0xA0 DUP4 ADD MSTORE TIMESTAMP PUSH1 0xC0 DUP4 ADD MSTORE CHAINID PUSH1 0xE0 DUP4 ADD MSTORE PUSH0 NOT NUMBER ADD BLOCKHASH PUSH2 0x100 DUP4 ADD MSTORE CALLER SWAP2 DUP1 PUSH1 0x4 CALLDATALOAD SWAP3 SUB PUSH32 0x2AECFBEE918DE57BF17545AB5F17CB6F740EFB621EDD9EA61D0D728424E98CA SWAP2 LOG3 STOP JUMPDEST PUSH4 0x4E487B71 PUSH1 0xE0 SHL PUSH0 MSTORE PUSH1 0x11 PUSH1 0x4 MSTORE PUSH1 0x24 PUSH0 REVERT JUMPDEST PUSH4 0x4E487B71 PUSH1 0xE0 SHL PUSH0 MSTORE PUSH1 0x41 PUSH1 0x4 MSTORE PUSH1 0x24 PUSH0 REVERT JUMPDEST ADD MLOAD SWAP1 POP PUSH0 DUP1 PUSH2 0x533 JUMP JUMPDEST SWAP1 PUSH1 0x6 DUP6 ADD PUSH0 MSTORE PUSH1 0x20 PUSH0 KECCAK256 SWAP2 PUSH0 JUMPDEST PUSH1 0x1F NOT DUP6 AND DUP2 LT PUSH2 0x714 JUMPI POP DUP4 PUSH2 0x160 SWAP4 PUSH2 0x58C SWAP8 SWAP7 SWAP4 PUSH1 0x1 SWAP4 PUSH1 0xB SWAP8 PUSH1 0x1F NOT DUP2 AND LT PUSH2 0x6FC JUMPI JUMPDEST POP POP POP DUP2 SHL ADD PUSH1 0x6 DUP6 ADD SSTORE PUSH2 0x54A JUMP JUMPDEST ADD MLOAD PUSH0 NOT PUSH1 0xF8 DUP5 PUSH1 0x3 SHL AND SHR NOT AND SWAP1 SSTORE PUSH0 DUP1 DUP1 PUSH2 0x6EC JUMP JUMPDEST SWAP2 SWAP3 PUSH1 0x20 PUSH1 0x1 DUP2 SWAP3 DUP7 DUP6 ADD MLOAD DUP2 SSTORE ADD SWAP5 ADD SWAP3 ADD PUSH2 0x6C4 JUMP JUMPDEST PUSH1 0x6 DUP6 ADD PUSH0 MSTORE PUSH1 0x20 PUSH0 KECCAK256 PUSH1 0x1F DUP5 ADD PUSH1 0x5 SHR DUP2 ADD PUSH1 0x20 DUP6 LT PUSH2 0x769 JUMPI JUMPDEST PUSH1 0x1F DUP4 ADD PUSH1 0x5 SHR DUP3 ADD DUP2 LT PUSH2 0x75E JUMPI POP POP PUSH2 0x50F JUMP JUMPDEST PUSH0 DUP2 SSTORE PUSH1 0x1 ADD PUSH2 0x748 JUMP JUMPDEST POP DUP1 PUSH2 0x748 JUMP JUMPDEST ADD MLOAD SWAP1 POP DUP15 DUP1 PUSH2 0x4CC JUMP JUMPDEST SWAP3 POP PUSH1 0x5 DUP6 ADD PUSH0 MSTORE PUSH1 0x20 PUSH0 KECCAK256 SWAP1 PUSH0 SWAP4 JUMPDEST PUSH1 0x1F NOT DUP5 AND DUP6 LT PUSH2 0x7CE JUMPI PUSH1 0x1 SWAP5 POP DUP4 PUSH1 0x1F NOT DUP2 AND LT PUSH2 0x7B6 JUMPI JUMPDEST POP POP POP DUP2 SHL ADD PUSH1 0x5 DUP4 ADD SSTORE PUSH2 0x4E3 JUMP JUMPDEST ADD MLOAD PUSH0 NOT PUSH1 0xF8 DUP5 PUSH1 0x3 SHL AND SHR NOT AND SWAP1 SSTORE DUP15 DUP1 DUP1 PUSH2 0x7A6 JUMP JUMPDEST DUP2 DUP2 ADD MLOAD DUP4 SSTORE PUSH1 0x20 SWAP5 DUP6 ADD SWAP5 PUSH1 0x1 SWAP1 SWAP4 ADD SWAP3 SWAP1 SWAP2 ADD SWAP1 PUSH2 0x78B JUMP JUMPDEST SWAP1 SWAP2 POP PUSH1 0x5 DUP6 ADD PUSH0 MSTORE PUSH1 0x20 PUSH0 KECCAK256 PUSH1 0x1F DUP5 ADD PUSH1 0x5 SHR DUP2 ADD PUSH1 0x20 DUP6 LT PUSH2 0x832 JUMPI JUMPDEST SWAP1 DUP5 SWAP4 SWAP3 SWAP2 JUMPDEST PUSH1 0x1F DUP4 ADD PUSH1 0x5 SHR DUP3 ADD DUP2 LT PUSH2 0x824 JUMPI POP POP PUSH2 0x4B6 JUMP JUMPDEST PUSH0 DUP2 SSTORE DUP6 SWAP5 POP PUSH1 0x1 ADD PUSH2 0x80E JUMP JUMPDEST POP DUP1 PUSH2 0x808 JUMP JUMPDEST ADD MLOAD SWAP1 POP DUP15 DUP1 PUSH2 0x471 JUMP JUMPDEST SWAP3 POP PUSH1 0x4 DUP6 ADD PUSH0 MSTORE PUSH1 0x20 PUSH0 KECCAK256 SWAP1 PUSH0 SWAP4 JUMPDEST PUSH1 0x1F NOT DUP5 AND DUP6 LT PUSH2 0x897 JUMPI PUSH1 0x1 SWAP5 POP DUP4 PUSH1 0x1F NOT DUP2 AND LT PUSH2 0x87F JUMPI JUMPDEST POP POP POP DUP2 SHL ADD PUSH1 0x4 DUP4 ADD SSTORE PUSH2 0x488 JUMP JUMPDEST ADD MLOAD PUSH0 NOT PUSH1 0xF8 DUP5 PUSH1 0x3 SHL AND SHR NOT AND SWAP1 SSTORE DUP15 DUP1 DUP1 PUSH2 0x86F JUMP JUMPDEST DUP2 DUP2 ADD MLOAD DUP4 SSTORE PUSH1 0x20 SWAP5 DUP6 ADD SWAP5 PUSH1 0x1 SWAP1 SWAP4 ADD SWAP3 SWAP1 SWAP2 ADD SWAP1 PUSH2 0x854 JUMP JUMPDEST SWAP1 SWAP2 POP PUSH1 0x4 DUP6 ADD PUSH0 MSTORE PUSH1 0x20 PUSH0 KECCAK256 PUSH1 0x1F DUP5 ADD PUSH1 0x5 SHR DUP2 ADD PUSH1 0x20 DUP6 LT PUSH2 0x8FB JUMPI JUMPDEST SWAP1 DUP5 SWAP4 SWAP3 SWAP2 JUMPDEST PUSH1 0x1F DUP4 ADD PUSH1 0x5 SHR DUP3 ADD DUP2 LT PUSH2 0x8ED JUMPI POP POP PUSH2 0x45B JUMP JUMPDEST PUSH0 DUP2 SSTORE DUP6 SWAP5 POP PUSH1 0x1 ADD PUSH2 0x8D7 JUMP JUMPDEST POP DUP1 PUSH2 0x8D1 JUMP JUMPDEST ADD MLOAD SWAP1 POP DUP15 DUP1 PUSH2 0x416 JUMP JUMPDEST SWAP3 POP PUSH1 0x3 DUP6 ADD PUSH0 MSTORE PUSH1 0x20 PUSH0 KECCAK256 SWAP1 PUSH0 SWAP4 JUMPDEST PUSH1 0x1F NOT DUP5 AND DUP6 LT PUSH2 0x960 JUMPI PUSH1 0x1 SWAP5 POP DUP4 PUSH1 0x1F NOT DUP2 AND LT PUSH2 0x948 JUMPI JUMPDEST POP POP POP DUP2 SHL ADD PUSH1 0x3 DUP4 ADD SSTORE PUSH2 0x42D JUMP JUMPDEST ADD MLOAD PUSH0 NOT PUSH1 0xF8 DUP5 PUSH1 0x3 SHL AND SHR NOT AND SWAP1 SSTORE DUP15 DUP1 DUP1 PUSH2 0x938 JUMP JUMPDEST DUP2 DUP2 ADD MLOAD DUP4 SSTORE PUSH1 0x20 SWAP5 DUP6 ADD SWAP5 PUSH1 0x1 SWAP1 SWAP4 ADD SWAP3 SWAP1 SWAP2 ADD SWAP1 PUSH2 0x91D JUMP JUMPDEST SWAP1 SWAP2 POP PUSH1 0x3 DUP6 ADD PUSH0 MSTORE PUSH1 0x20 PUSH0 KECCAK256 PUSH1 0x1F DUP5 ADD PUSH1 0x5 SHR DUP2 ADD PUSH1 0x20 DUP6 LT PUSH2 0x9C4 JUMPI JUMPDEST SWAP1 DUP5 SWAP4 SWAP3 SWAP2 JUMPDEST PUSH1 0x1F DUP4 ADD PUSH1 0x5 SHR DUP3 ADD DUP2 LT PUSH2 0x9B6 JUMPI POP POP PUSH2 0x400 JUMP JUMPDEST PUSH0 DUP2 SSTORE DUP6 SWAP5 POP PUSH1 0x1 ADD PUSH2 0x9A0 JUMP JUMPDEST POP DUP1 PUSH2 0x99A JUMP JUMPDEST ADD MLOAD SWAP1 POP DUP15 DUP1 PUSH2 0x3BB JUMP JUMPDEST SWAP3 POP PUSH1 0x2 DUP6 ADD PUSH0 MSTORE PUSH1 0x20 PUSH0 KECCAK256 SWAP1 PUSH0 SWAP4 JUMPDEST PUSH1 0x1F NOT DUP5 AND DUP6 LT PUSH2 0xA29 JUMPI PUSH1 0x1 SWAP5 POP DUP4 PUSH1 0x1F NOT DUP2 AND LT PUSH2 0xA11 JUMPI JUMPDEST POP POP POP DUP2 SHL ADD PUSH1 0x2 DUP4 ADD SSTORE PUSH2 0x3D2 JUMP JUMPDEST ADD MLOAD PUSH0 NOT PUSH1 0xF8 DUP5 PUSH1 0x3 SHL AND SHR NOT AND SWAP1 SSTORE DUP15 DUP1 DUP1 PUSH2 0xA01 JUMP JUMPDEST DUP2 DUP2 ADD MLOAD DUP4 SSTORE PUSH1 0x20 SWAP5 DUP6 ADD SWAP5 PUSH1 0x1 SWAP1 SWAP4 ADD SWAP3 SWAP1 SWAP2 ADD SWAP1 PUSH2 0x9E6 JUMP JUMPDEST SWAP1 SWAP2 POP PUSH1 0x2 DUP6 ADD PUSH0 MSTORE PUSH1 0x20 PUSH0 KECCAK256 PUSH1 0x1F DUP5 ADD PUSH1 0x5 SHR DUP2 ADD PUSH1 0x20 DUP6 LT PUSH2 0xA8D JUMPI JUMPDEST SWAP1 DUP5 SWAP4 SWAP3 SWAP2 JUMPDEST PUSH1 0x1F DUP4 ADD PUSH1 0x5 SHR DUP3 ADD DUP2 LT PUSH2 0xA7F JUMPI POP POP PUSH2 0x3A5 JUMP JUMPDEST PUSH0 DUP2 SSTORE DUP6 SWAP5 POP PUSH1 0x1 ADD PUSH2 0xA69 JUMP JUMPDEST POP DUP1 PUSH2 0xA63 JUMP JUMPDEST PUSH1 0x44 SWAP1 PUSH1 0x40 MLOAD SWAP1 PUSH4 0x6427AEB PUSH1 0xE0 SHL DUP3 MSTORE PUSH1 0x4 DUP3 ADD MSTORE PUSH1 0xE4 CALLDATALOAD PUSH1 0x24 DUP3 ADD MSTORE REVERT JUMPDEST PUSH1 0x40 MLOAD PUSH4 0x2E56A66B PUSH1 0xE1 SHL DUP2 MSTORE PUSH1 0x4 SWAP1 REVERT JUMPDEST PUSH1 0x40 MLOAD PUSH4 0x1C1C197 PUSH1 0xE6 SHL DUP2 MSTORE PUSH1 0x4 SWAP1 REVERT JUMPDEST PUSH1 0x40 MLOAD PUSH4 0xA7178871 PUSH1 0xE0 SHL DUP2 MSTORE PUSH1 0x4 SWAP1 REVERT JUMPDEST PUSH1 0x40 MLOAD PUSH4 0x79FC925 PUSH1 0xE1 SHL DUP2 MSTORE PUSH1 0x4 SWAP1 REVERT JUMPDEST POP CHAINID PUSH1 0xC4 CALLDATALOAD EQ ISZERO PUSH2 0x280 JUMP JUMPDEST PUSH1 0x24 PUSH1 0x40 MLOAD PUSH4 0x30D23813 PUSH1 0xE0 SHL DUP2 MSTORE PUSH1 0x4 CALLDATALOAD PUSH1 0x4 DUP3 ADD MSTORE REVERT JUMPDEST PUSH1 0x40 MLOAD PUSH4 0x2FE885D7 PUSH1 0xE2 SHL DUP2 MSTORE PUSH1 0x4 SWAP1 REVERT JUMPDEST PUSH1 0x40 MLOAD PUSH4 0xAB35696F PUSH1 0xE0 SHL DUP2 MSTORE PUSH1 0x4 SWAP1 REVERT JUMPDEST POP CALLER PUSH0 MSTORE PUSH1 0x2 PUSH1 0x20 MSTORE PUSH1 0xFF PUSH1 0x40 PUSH0 KECCAK256 SLOAD AND ISZERO PUSH2 0x246 JUMP JUMPDEST CALLVALUE PUSH2 0x158 JUMPI PUSH0 CALLDATASIZE PUSH1 0x3 NOT ADD SLT PUSH2 0x158 JUMPI PUSH1 0x20 PUSH1 0x4 SLOAD PUSH1 0x40 MLOAD SWAP1 DUP2 MSTORE RETURN JUMPDEST CALLVALUE PUSH2 0x158 JUMPI PUSH0 CALLDATASIZE PUSH1 0x3 NOT ADD SLT PUSH2 0x158 JUMPI PUSH0 SLOAD PUSH1 0x40 MLOAD PUSH1 0x1 PUSH1 0x1 PUSH1 0xA0 SHL SUB SWAP1 SWAP2 AND DUP2 MSTORE PUSH1 0x20 SWAP1 RETURN JUMPDEST CALLVALUE PUSH2 0x158 JUMPI PUSH1 0x20 CALLDATASIZE PUSH1 0x3 NOT ADD SLT PUSH2 0x158 JUMPI PUSH0 PUSH2 0x160 PUSH1 0x40 MLOAD PUSH2 0xBC1 DUP2 PUSH2 0x102A JUMP JUMPDEST DUP3 DUP2 MSTORE DUP3 PUSH1 0x20 DUP3 ADD MSTORE PUSH1 0x60 PUSH1 0x40 DUP3 ADD MSTORE PUSH1 0x60 DUP1 DUP3 ADD MSTORE PUSH1 0x60 PUSH1 0x80 DUP3 ADD MSTORE PUSH1 0x60 PUSH1 0xA0 DUP3 ADD MSTORE PUSH1 0x60 PUSH1 0xC0 DUP3 ADD MSTORE DUP3 PUSH1 0xE0 DUP3 ADD MSTORE DUP3 PUSH2 0x100 DUP3 ADD MSTORE DUP3 PUSH2 0x120 DUP3 ADD MSTORE DUP3 PUSH2 0x140 DUP3 ADD MSTORE ADD MSTORE PUSH1 0x4 CALLDATALOAD PUSH0 MSTORE PUSH1 0x3 PUSH1 0x20 MSTORE PUSH1 0x40 PUSH0 KECCAK256 PUSH1 0xFF PUSH1 0xB PUSH1 0x40 MLOAD SWAP3 PUSH2 0xC28 DUP5 PUSH2 0x102A JUMP JUMPDEST DUP1 SLOAD DUP5 MSTORE PUSH1 0x1 DUP2 ADD SLOAD PUSH1 0x1 PUSH1 0x1 PUSH1 0xA0 SHL SUB AND PUSH1 0x20 DUP6 ADD MSTORE PUSH2 0xC4B PUSH1 0x2 DUP3 ADD PUSH2 0x109F JUMP JUMPDEST PUSH1 0x40 DUP6 ADD MSTORE PUSH2 0xC5C PUSH1 0x3 DUP3 ADD PUSH2 0x109F JUMP JUMPDEST PUSH1 0x60 DUP6 ADD MSTORE PUSH2 0xC6D PUSH1 0x4 DUP3 ADD PUSH2 0x109F JUMP JUMPDEST PUSH1 0x80 DUP6 ADD MSTORE PUSH2 0xC7E PUSH1 0x5 DUP3 ADD PUSH2 0x109F JUMP JUMPDEST PUSH1 0xA0 DUP6 ADD MSTORE PUSH2 0xC8F PUSH1 0x6 DUP3 ADD PUSH2 0x109F JUMP JUMPDEST PUSH1 0xC0 DUP6 ADD MSTORE PUSH1 0x7 DUP2 ADD SLOAD PUSH1 0xE0 DUP6 ADD MSTORE PUSH1 0x8 DUP2 ADD SLOAD PUSH2 0x100 DUP6 ADD MSTORE PUSH1 0x9 DUP2 ADD SLOAD PUSH2 0x120 DUP6 ADD MSTORE PUSH1 0xA DUP2 ADD SLOAD PUSH2 0x140 DUP6 ADD MSTORE ADD SLOAD AND ISZERO ISZERO PUSH2 0x160 DUP3 ADD MSTORE PUSH1 0x40 MLOAD DUP1 SWAP2 PUSH1 0x20 DUP3 MSTORE DUP1 MLOAD PUSH1 0x20 DUP4 ADD MSTORE PUSH1 0x1 DUP1 PUSH1 0xA0 SHL SUB PUSH1 0x20 DUP3 ADD MLOAD AND PUSH1 0x40 DUP4 ADD MSTORE PUSH2 0x160 PUSH2 0xD6C PUSH2 0xD0D PUSH1 0x40 DUP5 ADD MLOAD PUSH2 0x180 PUSH1 0x60 DUP8 ADD MSTORE PUSH2 0x1A0 DUP7 ADD SWAP1 PUSH2 0xF76 JUMP JUMPDEST PUSH2 0xD57 PUSH2 0xD43 PUSH2 0xD2F PUSH1 0x60 DUP8 ADD MLOAD SWAP4 PUSH1 0x1F NOT SWAP5 DUP6 DUP11 DUP4 SUB ADD PUSH1 0x80 DUP12 ADD MSTORE PUSH2 0xF76 JUMP JUMPDEST PUSH1 0x80 DUP8 ADD MLOAD DUP5 DUP10 DUP4 SUB ADD PUSH1 0xA0 DUP11 ADD MSTORE PUSH2 0xF76 JUMP JUMPDEST PUSH1 0xA0 DUP7 ADD MLOAD DUP4 DUP9 DUP4 SUB ADD PUSH1 0xC0 DUP10 ADD MSTORE PUSH2 0xF76 JUMP JUMPDEST SWAP1 PUSH1 0xC0 DUP6 ADD MLOAD SWAP1 DUP7 DUP4 SUB ADD PUSH1 0xE0 DUP8 ADD MSTORE PUSH2 0xF76 JUMP JUMPDEST SWAP2 PUSH1 0xE0 DUP2 ADD MLOAD PUSH2 0x100 DUP6 ADD MSTORE PUSH2 0x100 DUP2 ADD MLOAD PUSH2 0x120 DUP6 ADD MSTORE PUSH2 0x120 DUP2 ADD MLOAD PUSH2 0x140 DUP6 ADD MSTORE PUSH2 0x140 DUP2 ADD MLOAD DUP3 DUP6 ADD MSTORE ADD MLOAD ISZERO ISZERO PUSH2 0x180 DUP4 ADD MSTORE SUB SWAP1 RETURN JUMPDEST CALLVALUE PUSH2 0x158 JUMPI PUSH0 CALLDATASIZE PUSH1 0x3 NOT ADD SLT PUSH2 0x158 JUMPI PUSH1 0x20 PUSH1 0xFF PUSH0 SLOAD PUSH1 0xA0 SHR AND PUSH1 0x40 MLOAD SWAP1 ISZERO ISZERO DUP2 MSTORE RETURN JUMPDEST CALLVALUE PUSH2 0x158 JUMPI PUSH1 0x20 CALLDATASIZE PUSH1 0x3 NOT ADD SLT PUSH2 0x158 JUMPI PUSH1 0x4 CALLDATALOAD PUSH0 MSTORE PUSH1 0x3 PUSH1 0x20 MSTORE PUSH1 0x20 PUSH1 0xFF PUSH1 0xB PUSH1 0x40 PUSH0 KECCAK256 ADD SLOAD AND PUSH1 0x40 MLOAD SWAP1 ISZERO ISZERO DUP2 MSTORE RETURN JUMPDEST CALLVALUE PUSH2 0x158 JUMPI PUSH1 0x20 CALLDATASIZE PUSH1 0x3 NOT ADD SLT PUSH2 0x158 JUMPI PUSH1 0x20 PUSH2 0xE1C PUSH1 0x4 CALLDATALOAD PUSH2 0xFE1 JUMP JUMPDEST SWAP1 SLOAD PUSH1 0x40 MLOAD SWAP2 PUSH1 0x3 SHL SHR DUP2 MSTORE RETURN JUMPDEST CALLVALUE PUSH2 0x158 JUMPI PUSH1 0x40 CALLDATASIZE PUSH1 0x3 NOT ADD SLT PUSH2 0x158 JUMPI PUSH2 0xE43 PUSH2 0xF60 JUMP JUMPDEST PUSH1 0x24 CALLDATALOAD SWAP1 DUP2 ISZERO ISZERO DUP1 DUP4 SUB PUSH2 0x158 JUMPI PUSH0 SLOAD PUSH1 0x1 PUSH1 0x1 PUSH1 0xA0 SHL SUB SWAP2 SWAP1 DUP3 AND CALLER SUB PUSH2 0x147 JUMPI PUSH2 0xEAB PUSH1 0x20 SWAP3 PUSH32 0x6FFF6B51FC7F6641DD270E7981BC5CFCDF76FEF18FAA559AEF714E9934C38743 SWAP5 AND SWAP5 DUP6 PUSH0 MSTORE PUSH1 0x2 DUP5 MSTORE PUSH1 0x40 PUSH0 KECCAK256 SWAP1 PUSH1 0xFF DUP1 NOT DUP4 SLOAD AND SWAP2 ISZERO ISZERO AND OR SWAP1 SSTORE JUMP JUMPDEST PUSH1 0x40 MLOAD SWAP1 DUP2 MSTORE LOG2 STOP JUMPDEST CALLVALUE PUSH2 0x158 JUMPI PUSH1 0x20 CALLDATASIZE PUSH1 0x3 NOT ADD SLT PUSH2 0x158 JUMPI PUSH1 0x4 CALLDATALOAD DUP1 ISZERO ISZERO DUP1 SWAP2 SUB PUSH2 0x158 JUMPI PUSH0 SLOAD PUSH1 0x1 PUSH1 0x1 PUSH1 0xA0 SHL SUB DUP2 AND CALLER SUB PUSH2 0x147 JUMPI PUSH1 0xFF PUSH1 0xA0 SHL NOT AND PUSH1 0xA0 DUP3 SWAP1 SHL PUSH1 0xFF PUSH1 0xA0 SHL AND OR PUSH0 SSTORE PUSH1 0x40 MLOAD SWAP1 DUP2 MSTORE PUSH32 0x4543BAA938CB97F5073EC206AD35638CDB1F4DB8F677D31579B2F6FE7D18C14A SWAP1 PUSH1 0x20 SWAP1 LOG1 STOP JUMPDEST CALLVALUE PUSH2 0x158 JUMPI PUSH1 0x20 CALLDATASIZE PUSH1 0x3 NOT ADD SLT PUSH2 0x158 JUMPI PUSH1 0x20 SWAP1 PUSH1 0x1 PUSH1 0x1 PUSH1 0xA0 SHL SUB PUSH2 0xF4B PUSH2 0xF60 JUMP JUMPDEST AND PUSH0 MSTORE PUSH1 0x2 DUP3 MSTORE PUSH1 0xFF PUSH1 0x40 PUSH0 KECCAK256 SLOAD AND ISZERO ISZERO DUP2 MSTORE RETURN JUMPDEST PUSH1 0x4 CALLDATALOAD SWAP1 PUSH1 0x1 PUSH1 0x1 PUSH1 0xA0 SHL SUB DUP3 AND DUP3 SUB PUSH2 0x158 JUMPI JUMP JUMPDEST SWAP2 SWAP1 DUP3 MLOAD SWAP3 DUP4 DUP3 MSTORE PUSH0 JUMPDEST DUP5 DUP2 LT PUSH2 0xFA0 JUMPI POP POP DUP3 PUSH0 PUSH1 0x20 DUP1 SWAP5 SWAP6 DUP5 ADD ADD MSTORE PUSH1 0x1F DUP1 NOT SWAP2 ADD AND ADD ADD SWAP1 JUMP JUMPDEST PUSH1 0x20 DUP2 DUP4 ADD DUP2 ADD MLOAD DUP5 DUP4 ADD DUP3 ADD MSTORE ADD PUSH2 0xF80 JUMP JUMPDEST SWAP2 DUP2 PUSH1 0x1F DUP5 ADD SLT ISZERO PUSH2 0x158 JUMPI DUP3 CALLDATALOAD SWAP2 PUSH1 0x1 PUSH1 0x1 PUSH1 0x40 SHL SUB DUP4 GT PUSH2 0x158 JUMPI PUSH1 0x20 DUP4 DUP2 DUP7 ADD SWAP6 ADD ADD GT PUSH2 0x158 JUMPI JUMP JUMPDEST PUSH1 0x4 SLOAD DUP2 LT ISZERO PUSH2 0x1016 JUMPI PUSH1 0x4 PUSH0 MSTORE PUSH32 0x8A35ACFBC15FF81A39AE7D344FD709F28E8600B4AA8C65C6B64BFE7FE36BD19B ADD SWAP1 PUSH0 SWAP1 JUMP JUMPDEST PUSH4 0x4E487B71 PUSH1 0xE0 SHL PUSH0 MSTORE PUSH1 0x32 PUSH1 0x4 MSTORE PUSH1 0x24 PUSH0 REVERT JUMPDEST PUSH2 0x180 DUP2 ADD SWAP1 DUP2 LT PUSH1 0x1 PUSH1 0x1 PUSH1 0x40 SHL SUB DUP3 GT OR PUSH2 0x697 JUMPI PUSH1 0x40 MSTORE JUMP JUMPDEST SWAP1 PUSH1 0x1F DUP1 NOT SWAP2 ADD AND DUP2 ADD SWAP1 DUP2 LT PUSH1 0x1 PUSH1 0x1 PUSH1 0x40 SHL SUB DUP3 GT OR PUSH2 0x697 JUMPI PUSH1 0x40 MSTORE JUMP JUMPDEST SWAP1 PUSH1 0x1 DUP3 DUP2 SHR SWAP3 AND DUP1 ISZERO PUSH2 0x1095 JUMPI JUMPDEST PUSH1 0x20 DUP4 LT EQ PUSH2 0x1081 JUMPI JUMP JUMPDEST PUSH4 0x4E487B71 PUSH1 0xE0 SHL PUSH0 MSTORE PUSH1 0x22 PUSH1 0x4 MSTORE PUSH1 0x24 PUSH0 REVERT JUMPDEST SWAP2 PUSH1 0x7F AND SWAP2 PUSH2 0x1076 JUMP JUMPDEST SWAP1 PUSH1 0x40 MLOAD SWAP2 DUP3 PUSH0 DUP3 SLOAD PUSH2 0x10B1 DUP2 PUSH2 0x1067 JUMP JUMPDEST SWAP1 DUP2 DUP5 MSTORE PUSH1 0x20 SWAP5 PUSH1 0x1 SWAP2 PUSH1 0x1 DUP2 AND SWAP1 DUP2 PUSH0 EQ PUSH2 0x111F JUMPI POP PUSH1 0x1 EQ PUSH2 0x10E1 JUMPI JUMPDEST POP POP POP PUSH2 0x10DF SWAP3 POP SUB DUP4 PUSH2 0x1046 JUMP JUMPDEST JUMP JUMPDEST PUSH0 SWAP1 DUP2 MSTORE DUP6 DUP2 KECCAK256 SWAP6 SWAP4 POP SWAP2 SWAP1 JUMPDEST DUP2 DUP4 LT PUSH2 0x1107 JUMPI POP POP PUSH2 0x10DF SWAP4 POP DUP3 ADD ADD PUSH0 DUP1 DUP1 PUSH2 0x10D0 JUMP JUMPDEST DUP6 SLOAD DUP9 DUP5 ADD DUP6 ADD MSTORE SWAP5 DUP6 ADD SWAP5 DUP8 SWAP5 POP SWAP2 DUP4 ADD SWAP2 PUSH2 0x10EE JUMP JUMPDEST SWAP3 POP POP POP PUSH2 0x10DF SWAP5 SWAP3 POP PUSH1 0xFF NOT AND DUP3 DUP5 ADD MSTORE ISZERO ISZERO PUSH1 0x5 SHL DUP3 ADD ADD PUSH0 DUP1 DUP1 PUSH2 0x10D0 JUMP JUMPDEST SWAP3 SWAP2 SWAP3 PUSH1 0x1 PUSH1 0x1 PUSH1 0x40 SHL SUB DUP3 GT PUSH2 0x697 JUMPI PUSH1 0x40 MLOAD SWAP2 PUSH2 0x116A PUSH1 0x1F DUP3 ADD PUSH1 0x1F NOT AND PUSH1 0x20 ADD DUP5 PUSH2 0x1046 JUMP JUMPDEST DUP3 SWAP5 DUP2 DUP5 MSTORE DUP2 DUP4 ADD GT PUSH2 0x158 JUMPI DUP3 DUP2 PUSH1 0x20 SWAP4 DUP5 PUSH0 SWAP7 ADD CALLDATACOPY ADD ADD MSTORE JUMP JUMPDEST SWAP1 DUP1 PUSH1 0x20 SWAP4 SWAP3 DUP2 DUP5 MSTORE DUP5 DUP5 ADD CALLDATACOPY PUSH0 DUP3 DUP3 ADD DUP5 ADD MSTORE PUSH1 0x1F ADD PUSH1 0x1F NOT AND ADD ADD SWAP1 JUMP INVALID LOG2 PUSH5 0x6970667358 0x22 SLT KECCAK256 0xCD 0xAC PUSH17 0xD838167AE79236C22CC69265614155ED95 0xF9 TLOAD DUP1 LOG2 0x2E 0xDB MUL 0x4E 0xAD 0xE1 PUSH25 0xEB64736F6C6343000818003300000000000000000000000000 "},"methodIdentifiers":{"anchorClosure(bytes32,string,string,string,string,string,uint256,uint256)":"d48b577b","getAnchor(bytes32)":"7feb51d9","guardians(address)":"0633b14a","isAnchored(bytes32)":"4f0b5801","nextNonce()":"d69c3d30","owner()":"8da5cb5b","paused()":"5c975abb","rootHashAt(uint256)":"321ef0d3","setGuardian(address,bool)":"2b8a1c5a","setPaused(bool)":"16c38b3c","totalAnchors()":"9ffb4635","transferOwnership(address)":"f2fde38b"}}}}}