{
  "_format": "hh3-artifact-1",
  "contractName": "ClosureAnchor",
  "sourceName": "contracts/ClosureAnchor.sol",
  "abi": [
    {
      "inputs": [
        {
          "internalType": "address",
          "name": "initialOwner",
          "type": "address"
        }
      ],
      "stateMutability": "nonpayable",
      "type": "constructor"
    },
    {
      "inputs": [
        {
          "internalType": "bytes32",
          "name": "rootHash",
          "type": "bytes32"
        }
      ],
      "name": "AlreadyAnchored",
      "type": "error"
    },
    {
      "inputs": [],
      "name": "ContractPaused",
      "type": "error"
    },
    {
      "inputs": [],
      "name": "EmptyAnchorType",
      "type": "error"
    },
    {
      "inputs": [],
      "name": "EmptyArtifactType",
      "type": "error"
    },
    {
      "inputs": [],
      "name": "EmptyRootHash",
      "type": "error"
    },
    {
      "inputs": [],
      "name": "EmptyVersion",
      "type": "error"
    },
    {
      "inputs": [],
      "name": "InvalidChainHint",
      "type": "error"
    },
    {
      "inputs": [
        {
          "internalType": "uint256",
          "name": "expected",
          "type": "uint256"
        },
        {
          "internalType": "uint256",
          "name": "provided",
          "type": "uint256"
        }
      ],
      "name": "InvalidNonce",
      "type": "error"
    },
    {
      "inputs": [],
      "name": "Unauthorized",
      "type": "error"
    },
    {
      "anonymous": false,
      "inputs": [
        {
          "indexed": true,
          "internalType": "bytes32",
          "name": "rootHash",
          "type": "bytes32"
        },
        {
          "indexed": true,
          "internalType": "address",
          "name": "anchorer",
          "type": "address"
        },
        {
          "indexed": false,
          "internalType": "string",
          "name": "anchorType",
          "type": "string"
        },
        {
          "indexed": false,
          "internalType": "string",
          "name": "artifactType",
          "type": "string"
        },
        {
          "indexed": false,
          "internalType": "string",
          "name": "version",
          "type": "string"
        },
        {
          "indexed": false,
          "internalType": "string",
          "name": "manifestURI",
          "type": "string"
        },
        {
          "indexed": false,
          "internalType": "string",
          "name": "receiptURI",
          "type": "string"
        },
        {
          "indexed": false,
          "internalType": "uint256",
          "name": "nonce",
          "type": "uint256"
        },
        {
          "indexed": false,
          "internalType": "uint256",
          "name": "timestamp",
          "type": "uint256"
        },
        {
          "indexed": false,
          "internalType": "uint256",
          "name": "chainId",
          "type": "uint256"
        },
        {
          "indexed": false,
          "internalType": "bytes32",
          "name": "blockHash",
          "type": "bytes32"
        }
      ],
      "name": "ClosureAnchored",
      "type": "event"
    },
    {
      "anonymous": false,
      "inputs": [
        {
          "indexed": true,
          "internalType": "address",
          "name": "guardian",
          "type": "address"
        },
        {
          "indexed": false,
          "internalType": "bool",
          "name": "allowed",
          "type": "bool"
        }
      ],
      "name": "GuardianUpdated",
      "type": "event"
    },
    {
      "anonymous": false,
      "inputs": [
        {
          "indexed": true,
          "internalType": "address",
          "name": "previousOwner",
          "type": "address"
        },
        {
          "indexed": true,
          "internalType": "address",
          "name": "newOwner",
          "type": "address"
        }
      ],
      "name": "OwnerTransferred",
      "type": "event"
    },
    {
      "anonymous": false,
      "inputs": [
        {
          "indexed": false,
          "internalType": "bool",
          "name": "paused",
          "type": "bool"
        }
      ],
      "name": "PauseStateChanged",
      "type": "event"
    },
    {
      "inputs": [
        {
          "internalType": "bytes32",
          "name": "rootHash",
          "type": "bytes32"
        },
        {
          "internalType": "string",
          "name": "anchorType",
          "type": "string"
        },
        {
          "internalType": "string",
          "name": "artifactType",
          "type": "string"
        },
        {
          "internalType": "string",
          "name": "version",
          "type": "string"
        },
        {
          "internalType": "string",
          "name": "manifestURI",
          "type": "string"
        },
        {
          "internalType": "string",
          "name": "receiptURI",
          "type": "string"
        },
        {
          "internalType": "uint256",
          "name": "expectedChainId",
          "type": "uint256"
        },
        {
          "internalType": "uint256",
          "name": "nonce",
          "type": "uint256"
        }
      ],
      "name": "anchorClosure",
      "outputs": [],
      "stateMutability": "nonpayable",
      "type": "function"
    },
    {
      "inputs": [
        {
          "internalType": "bytes32",
          "name": "rootHash",
          "type": "bytes32"
        }
      ],
      "name": "getAnchor",
      "outputs": [
        {
          "components": [
            {
              "internalType": "bytes32",
              "name": "rootHash",
              "type": "bytes32"
            },
            {
              "internalType": "address",
              "name": "anchorer",
              "type": "address"
            },
            {
              "internalType": "string",
              "name": "anchorType",
              "type": "string"
            },
            {
              "internalType": "string",
              "name": "artifactType",
              "type": "string"
            },
            {
              "internalType": "string",
              "name": "version",
              "type": "string"
            },
            {
              "internalType": "string",
              "name": "manifestURI",
              "type": "string"
            },
            {
              "internalType": "string",
              "name": "receiptURI",
              "type": "string"
            },
            {
              "internalType": "uint256",
              "name": "nonce",
              "type": "uint256"
            },
            {
              "internalType": "uint256",
              "name": "timestamp",
              "type": "uint256"
            },
            {
              "internalType": "uint256",
              "name": "chainId",
              "type": "uint256"
            },
            {
              "internalType": "bytes32",
              "name": "blockHash",
              "type": "bytes32"
            },
            {
              "internalType": "bool",
              "name": "exists",
              "type": "bool"
            }
          ],
          "internalType": "struct ClosureAnchor.AnchorRecord",
          "name": "",
          "type": "tuple"
        }
      ],
      "stateMutability": "view",
      "type": "function"
    },
    {
      "inputs": [
        {
          "internalType": "address",
          "name": "",
          "type": "address"
        }
      ],
      "name": "guardians",
      "outputs": [
        {
          "internalType": "bool",
          "name": "",
          "type": "bool"
        }
      ],
      "stateMutability": "view",
      "type": "function"
    },
    {
      "inputs": [
        {
          "internalType": "bytes32",
          "name": "rootHash",
          "type": "bytes32"
        }
      ],
      "name": "isAnchored",
      "outputs": [
        {
          "internalType": "bool",
          "name": "",
          "type": "bool"
        }
      ],
      "stateMutability": "view",
      "type": "function"
    },
    {
      "inputs": [],
      "name": "nextNonce",
      "outputs": [
        {
          "internalType": "uint256",
          "name": "",
          "type": "uint256"
        }
      ],
      "stateMutability": "view",
      "type": "function"
    },
    {
      "inputs": [],
      "name": "owner",
      "outputs": [
        {
          "internalType": "address",
          "name": "",
          "type": "address"
        }
      ],
      "stateMutability": "view",
      "type": "function"
    },
    {
      "inputs": [],
      "name": "paused",
      "outputs": [
        {
          "internalType": "bool",
          "name": "",
          "type": "bool"
        }
      ],
      "stateMutability": "view",
      "type": "function"
    },
    {
      "inputs": [
        {
          "internalType": "uint256",
          "name": "index",
          "type": "uint256"
        }
      ],
      "name": "rootHashAt",
      "outputs": [
        {
          "internalType": "bytes32",
          "name": "",
          "type": "bytes32"
        }
      ],
      "stateMutability": "view",
      "type": "function"
    },
    {
      "inputs": [
        {
          "internalType": "address",
          "name": "guardian",
          "type": "address"
        },
        {
          "internalType": "bool",
          "name": "allowed",
          "type": "bool"
        }
      ],
      "name": "setGuardian",
      "outputs": [],
      "stateMutability": "nonpayable",
      "type": "function"
    },
    {
      "inputs": [
        {
          "internalType": "bool",
          "name": "isPaused",
          "type": "bool"
        }
      ],
      "name": "setPaused",
      "outputs": [],
      "stateMutability": "nonpayable",
      "type": "function"
    },
    {
      "inputs": [],
      "name": "totalAnchors",
      "outputs": [
        {
          "internalType": "uint256",
          "name": "",
          "type": "uint256"
        }
      ],
      "stateMutability": "view",
      "type": "function"
    },
    {
      "inputs": [
        {
          "internalType": "address",
          "name": "newOwner",
          "type": "address"
        }
      ],
      "name": "transferOwnership",
      "outputs": [],
      "stateMutability": "nonpayable",
      "type": "function"
    }
  ],
  "bytecode": "0x6080346100a757601f61129c38819003918201601f19168301916001600160401b038311848410176100ab578084926020946040528339810103126100a757516001600160a01b03908181168082036100a757600180556100a25750335b168060018060a01b03195f5416175f55604051905f7f8934ce4adea8d9ce0d714d2c22b86790e41b7731c84b926fbbdc1d40ff6533c98180a36111dc90816100c08239f35b61005d565b5f80fd5b634e487b7160e01b5f52604160045260245ffdfe6080806040526004361015610012575f80fd5b5f3560e01c9081630633b14a14610f275750806316c38b3c14610eb45780632b8a1c5a14610e2a578063321ef0d314610dfe5780634f0b580114610dcc5780635c975abb14610da85780637feb51d914610ba05780638da5cb5b14610b795780639ffb463514610b5c578063d48b577b14610179578063d69c3d301461015c5763f2fde38b146100a0575f80fd5b34610158576020366003190112610158576100b9610f60565b5f54906001600160a01b038083169133839003610147571691821561010e576001600160a01b03191682175f9081557f8934ce4adea8d9ce0d714d2c22b86790e41b7731c84b926fbbdc1d40ff6533c99080a3005b60405162461bcd60e51b81526020600482015260116024820152706e6577206f776e6572206973207a65726f60781b6044820152606490fd5b6040516282b42960e81b8152600490fd5b5f80fd5b34610158575f366003190112610158576020600154604051908152f35b3461015857610100366003190112610158576024356001600160401b038111610158576101aa903690600401610fb4565b906044356001600160401b038111610158576101ca903690600401610fb4565b906064356001600160401b038111610158576101ea903690600401610fb4565b906084356001600160401b0381116101585761020a903690600401610fb4565b92909360a4356001600160401b0381116101585761022c903690600401610fb4565b5f549198909791336001600160a01b038216141580610b45575b6101475760a01c60ff16610b335760043515610b21576004355f52600360205260ff600b60405f20015416610b085760c435151580610afc575b610aea578915610ad8578115610ac6578315610ab4576001548060e43503610a945750435f19810111610683576040516102b98161102a565b60043581523360208201526102cf368c84611141565b60408201526102df368486611141565b60608201526102ef368688611141565b60808201526102ff36888a611141565b60a082015261030f368a8c611141565b60c082015260e43560e082015242610100820152466101208201525f1943014061014082015260016101608201526004355f52600360205260405f2090805182556001820160018060a01b036020830151166bffffffffffffffffffffffff60a01b82541617905560408101518051906001600160401b03821161069757819061039c6002860154611067565b601f8111610a44575b50602090601f83116001146109d6575f926109cb575b50508160011b915f199060031b1c19161760028301555b60608101518051906001600160401b0382116106975781906103f76003860154611067565b601f811161097b575b50602090601f831160011461090d575f92610902575b50508160011b915f199060031b1c19161760038301555b60808101518051906001600160401b0382116106975781906104526004860154611067565b601f81116108b2575b50602090601f8311600114610844575f92610839575b50508160011b915f199060031b1c19161760048301555b60a08101518051906001600160401b0382116106975781906104ad6005860154611067565b601f81116107e9575b50602090601f831160011461077b575f92610770575b50508160011b915f199060031b1c19161760058301555b60c08101518051906001600160401b038211610697576105066006850154611067565b601f811161072c575b50602090601f83116001146106b6579282600b936101609361058c97965f926106ab575b50508160011b915f199060031b1c19161760068501555b60e0810151600785015561010081015160088501556101208101516009850155610140810151600a8501550151151591019060ff801983541691151516179055565b60045468010000000000000000811015610697578060016105b09201600455610fe1565b81549060031b90600435821b915f19901b19161790556001546001810180911161068357600155604051996101208b526101208b01906105ef92611186565b9089820360208b015261060192611186565b90878203604089015261061392611186565b90858203606087015261062592611186565b90838203608085015261063792611186565b60e43560a08301524260c08301524660e08301525f1943014061010083015233918060043592037f02aecfbee918de57bf17545ab5f17cb6f740efb621edd9ea61d0d728424e98ca91a3005b634e487b7160e01b5f52601160045260245ffd5b634e487b7160e01b5f52604160045260245ffd5b015190505f80610533565b90600685015f5260205f20915f5b601f19851681106107145750836101609361058c979693600193600b97601f198116106106fc575b505050811b01600685015561054a565b01515f1960f88460031b161c191690555f80806106ec565b919260206001819286850151815501940192016106c4565b600685015f5260205f20601f840160051c810160208510610769575b601f830160051c8201811061075e57505061050f565b5f8155600101610748565b5080610748565b015190508e806104cc565b9250600585015f5260205f20905f935b601f19841685106107ce576001945083601f198116106107b6575b505050811b0160058301556104e3565b01515f1960f88460031b161c191690558e80806107a6565b8181015183556020948501946001909301929091019061078b565b909150600585015f5260205f20601f840160051c810160208510610832575b90849392915b601f830160051c820181106108245750506104b6565b5f815585945060010161080e565b5080610808565b015190508e80610471565b9250600485015f5260205f20905f935b601f1984168510610897576001945083601f1981161061087f575b505050811b016004830155610488565b01515f1960f88460031b161c191690558e808061086f565b81810151835560209485019460019093019290910190610854565b909150600485015f5260205f20601f840160051c8101602085106108fb575b90849392915b601f830160051c820181106108ed57505061045b565b5f81558594506001016108d7565b50806108d1565b015190508e80610416565b9250600385015f5260205f20905f935b601f1984168510610960576001945083601f19811610610948575b505050811b01600383015561042d565b01515f1960f88460031b161c191690558e8080610938565b8181015183556020948501946001909301929091019061091d565b909150600385015f5260205f20601f840160051c8101602085106109c4575b90849392915b601f830160051c820181106109b6575050610400565b5f81558594506001016109a0565b508061099a565b015190508e806103bb565b9250600285015f5260205f20905f935b601f1984168510610a29576001945083601f19811610610a11575b505050811b0160028301556103d2565b01515f1960f88460031b161c191690558e8080610a01565b818101518355602094850194600190930192909101906109e6565b909150600285015f5260205f20601f840160051c810160208510610a8d575b90849392915b601f830160051c82018110610a7f5750506103a5565b5f8155859450600101610a69565b5080610a63565b604490604051906306427aeb60e01b8252600482015260e4356024820152fd5b604051632e56a66b60e11b8152600490fd5b6040516301c1c19760e61b8152600490fd5b60405163a717887160e01b8152600490fd5b60405163079fc92560e11b8152600490fd5b504660c4351415610280565b60246040516330d2381360e01b81526004356004820152fd5b604051632fe885d760e21b8152600490fd5b60405163ab35696f60e01b8152600490fd5b50335f52600260205260ff60405f20541615610246565b34610158575f366003190112610158576020600454604051908152f35b34610158575f366003190112610158575f546040516001600160a01b039091168152602090f35b34610158576020366003190112610158575f610160604051610bc18161102a565b8281528260208201526060604082015260608082015260606080820152606060a0820152606060c08201528260e082015282610100820152826101208201528261014082015201526004355f52600360205260405f2060ff600b60405192610c288461102a565b8054845260018101546001600160a01b03166020850152610c4b6002820161109f565b6040850152610c5c6003820161109f565b6060850152610c6d6004820161109f565b6080850152610c7e6005820161109f565b60a0850152610c8f6006820161109f565b60c0850152600781015460e085015260088101546101008501526009810154610120850152600a81015461014085015201541615156101608201526040518091602082528051602083015260018060a01b036020820151166040830152610160610d6c610d0d604084015161018060608701526101a0860190610f76565b610d57610d43610d2f606087015193601f1994858a83030160808b0152610f76565b6080870151848983030160a08a0152610f76565b60a0860151838883030160c0890152610f76565b9060c0850151908683030160e0870152610f76565b9160e081015161010085015261010081015161012085015261012081015161014085015261014081015182850152015115156101808301520390f35b34610158575f36600319011261015857602060ff5f5460a01c166040519015158152f35b34610158576020366003190112610158576004355f526003602052602060ff600b60405f200154166040519015158152f35b34610158576020366003190112610158576020610e1c600435610fe1565b90546040519160031b1c8152f35b3461015857604036600319011261015857610e43610f60565b60243590811515808303610158575f546001600160a01b0391908216330361014757610eab6020927f6fff6b51fc7f6641dd270e7981bc5cfcdf76fef18faa559aef714e9934c38743941694855f526002845260405f209060ff801983541691151516179055565b604051908152a2005b3461015857602036600319011261015857600435801515809103610158575f546001600160a01b03811633036101475760ff60a01b191660a082901b60ff60a01b16175f556040519081527f4543baa938cb97f5073ec206ad35638cdb1f4db8f677d31579b2f6fe7d18c14a90602090a1005b34610158576020366003190112610158576020906001600160a01b03610f4b610f60565b165f526002825260ff60405f20541615158152f35b600435906001600160a01b038216820361015857565b91908251928382525f5b848110610fa0575050825f602080949584010152601f8019910116010190565b602081830181015184830182015201610f80565b9181601f84011215610158578235916001600160401b038311610158576020838186019501011161015857565b6004548110156110165760045f527f8a35acfbc15ff81a39ae7d344fd709f28e8600b4aa8c65c6b64bfe7fe36bd19b01905f90565b634e487b7160e01b5f52603260045260245ffd5b61018081019081106001600160401b0382111761069757604052565b90601f801991011681019081106001600160401b0382111761069757604052565b90600182811c92168015611095575b602083101461108157565b634e487b7160e01b5f52602260045260245ffd5b91607f1691611076565b9060405191825f82546110b181611067565b908184526020946001916001811690815f1461111f57506001146110e1575b5050506110df92500383611046565b565b5f90815285812095935091905b8183106111075750506110df93508201015f80806110d0565b855488840185015294850194879450918301916110ee565b925050506110df94925060ff191682840152151560051b8201015f80806110d0565b9291926001600160401b038211610697576040519161116a601f8201601f191660200184611046565b829481845281830111610158578281602093845f960137010152565b908060209392818452848401375f828201840152601f01601f191601019056fea2646970667358221220cdac70d838167ae79236c22cc69265614155ed95f95c80a22edb024eade178eb64736f6c63430008180033",
  "linkReferences": {},
  "deployedLinkReferences": {},
  "immutableReferences": {},
  "inputSourceName": "project/contracts/ClosureAnchor.sol",
  "buildInfoId": "solc-0_8_24-b34441c75e17cab79f033f75f16fb9926bd575a9"
}